:020000040800F2
:1000000000500020D9050008CD050008CF050008E4
:1000100000000000000000000000000000000000E0
:10002000000000000000000000000000D1050008F2
:100030000000000000000000D3050008D5050008FE
:1000400029060008290600082906000829060008D4
:1000500029060008290600082906000829060008C4
:1000600029060008290600082906000829060008B4
:1000700029060008290600082906000829060008A4
:1000800029060008290600082906000800000000CB
:100090002906000829060008290600082906000884
:1000A0002906000829060008290600082906000874
:1000B0002906000829060008290600082906000864
:1000C00010B5064C2378002B07D1054B002B02D02E
:1000D000044800E000BF0123237010BD3404002059
:1000E00000000000700D0008044B10B5002B03D079
:1000F0000349044800E000BF10BDC04600000000F6
:1001000038040020700D0008002243088B4274D38D
:1001100003098B425FD3030A8B4244D3030B8B4208
:1001200028D3030C8B420DD3FF22090212BA030C11
:100130008B4202D31212090265D0030B8B4219D3F2
:1001400000E0090AC30B8B4201D3CB03C01A524112
:10015000830B8B4201D38B03C01A5241430B8B425A
:1001600001D34B03C01A5241030B8B4201D30B0343
:10017000C01A5241C30A8B4201D3CB02C01A52416A
:10018000830A8B4201D38B02C01A5241430A8B422D
:1001900001D34B02C01A5241030A8B4201D30B0216
:1001A000C01A5241CDD2C3098B4201D3CB01C01A30
:1001B000524183098B4201D38B01C01A524143093A
:1001C0008B4201D34B01C01A524103098B4201D328
:1001D0000B01C01A5241C3088B4201D3CB00C01A95
:1001E000524183088B4201D38B00C01A524143080D
:1001F0008B4201D34B00C01A5241411A00D2014632
:10020000524110467047FFE701B5002000F006F8A4
:1002100002BDC0460029F7D076E770477047C04658
:10022000F0B5C64600B58CB00AAC0822002120000B
:1002300000F0C8FC1822002104A800F0C3FC254BE4
:10024000D96A04221143D962D96A0A400392039AF7
:10025000D96A80221143D962D96A0A400292029A6D
:10026000DA6A01263243DA62DA6A32400192019A8E
:10027000D96A02221143D962DB6A13400093009BC2
:10028000A023DB05984620279F6213494B69F02085
:1002900083433B434B61114BD868114D2840D860D4
:1002A00019682940196080239B010A932671002553
:1002B0006571A271200000F0B9F9049705960695C2
:1002C0000795089504A9404600F014FA0CB080BCCC
:1002D000B846F0BD00100240000001400008005088
:1002E000FFFFFFF3F0B5CE46474680B591B01C2224
:1002F000002109A800F066FC1822002103A800F0E4
:1003000061FC2C4CE36A02252B43E362E36A2B4039
:100310000293029B80235B0003930495FD3B994667
:100320000593023B9846069304270897224E03A99B
:10033000300000F0DFF980239B00039304954B46C7
:1003400005934346069300250795089703A93000B7
:1003500000F0D0F9A26B802189030A43A263A36B4A
:100360000B400193019B154C626880239B0413434F
:100370006360E368124A1340E3602368114A134044
:1003800023602368104A1340236009950F4B0A939A
:100390000B950C950D950E950F9509A9200000F071
:1003A00001FAE3680A4A1340E36011B0C0BCB946E1
:1003B000B046F0BD00100240000400500054004060
:1003C000FF7FFFFFFFFFF7FFFFFFFDFFBB7C70001C
:1003D00001F8FFFFF0B5C64600B590B01C22002121
:1003E00009A800F0EFFB1822002103A800F0EAFBA7
:1003F000254B996B80208002014399639A6B0240E0
:100400000292029ADA6A01252A43DA62DB6A2B40F9
:100410000193019B04260396022398460493032428
:1004200005940896A027FF0503A9380000F062F99B
:1004300008230393434604930594002406940794E9
:10044000089603A9380000F055F9E1235B020993EF
:100450000A940B940C940C230D930E940F940B4C54
:1004600009A9200000F0ECFA6368094A13406360B0
:10047000A3682A229343A36023682B43236010B010
:1004800080BCB846F0BDC0460010024000440040A9
:10049000FFB7FFFF10B52E4A136801218B430B43B2
:1004A00013602B4B1B68DB07FBD52A490B682A4AD4
:1004B0001A4080231B0113430B60284A1368012153
:1004C0000B431360254B1B685B07FBD5234B5A6816
:1004D00023491140802252010A435A60DA682149B7
:1004E00011408822D2030A43DA601968802252043C
:1004F0000A431A60194B1B689B01FBD5174BDA683E
:10050000F0218A43DA60DA6817490A40DA60DA686B
:1005100016490A40DA60DA6803218A430A43DA603E
:100520000E4BDA680C2313400C2BF9D1104C200031
:1005300000F0FCFA200000F01DFB084BDA6C0C21E7
:100540008A43DA64DA6C0B490A40DA6410BDC046AB
:100550000020024000700040FFE7FFFF0010024053
:10056000FFE0FFFFFFFF02FFFFF8FFFFFFC7FFFFF6
:100570000048E801FFCFFFFF00B583B0114B596B76
:10058000012211435963596B0A400192019A9A6BF7
:10059000802149050A439A639B6B0B400093009BA3
:1005A000FFF778FFFFF73CFEFFF79CFEFFF712FF17
:1005B000054B61229A62573A9A62FA20800000F055
:1005C000C5FAF5E70010024000440040FEE7FEE7F0
:1005D00070477047704770470D4885460D480E4973
:1005E0000E4A002302E0D458C4500433C4188C428D
:1005F000F9D30B4A0B4C002301E013600432A242F2
:10060000FBD3FFF7E8FF00F0BBFAFFF7B5FFFEE70B
:10061000005000200000002034040020BC0D000821
:100620003404002054040020FEE7000010B503004D
:100630000079002850D01A68002A57D0587901282C
:1006400018D0022820D000280BD001209A79002A47
:100650004BD0022A2CD0032A34D0012A1ED00120EC
:1006600043E023494C6894434C600A681C68224369
:100670000A60EBE71E490868904308604A681868FA
:1006800002434A600020E1E71949086802430A6012
:100690004A68186802434A600020D7E7144AD168C4
:1006A0001C68A143D1601B6891680B4393601CE0F8
:1006B0000F4A91681C68A14391601B68D1680B4385
:1006C000D36012E00A4A91681C68214391601B685C
:1006D000D1680B43D36008E0054A11681C68A14348
:1006E0001160196853688B43536010BD0020FCE70C
:1006F00000040140F0B5002216E0C6682B006B43F1
:100700005F00FF18FC43A446BE430F695F433E43AE
:10071000C6604C68022C27D0046865462C404D68A2
:100720006B432343036001320C682300D34037D06E
:100730000123934025001D401C42F4D04B68013B2F
:10074000012BDAD883682C006C4366003619B3435A
:100750008E687443234383600C684368A343CE6868
:10076000744323434360C8E7FF2D0BD8066A1C007F
:100770006C4365432C01641BA6434C6965433543B8
:100780000562C9E7466A2D0A2C006C436C43654339
:100790002C01641BA6434C69654335434562BBE7A6
:1007A0000020F0BD30B502680124A2430260036856
:1007B000174A1340CA6812028D682A431343036024
:1007C0004B6803610368234303608368114A134045
:1007D00083608368DB0ADB020A698C692243134366
:1007E00083600B69002B04D0826880231B021343B3
:1007F00083600368084A13400A68134303604B6927
:10080000426804490A4013434360002030BDC0469B
:10081000FFE0FFFFFF7FFFFFFFFFCFFF044BDA6822
:1008200012090F231340034AD35CD8407047C046D7
:1008300000100240880D0008044BDA68120A0723F2
:100840001340034AD35CD8407047C04600100240B2
:10085000980D0008044BDA68D20A07231340034AB4
:10086000D35CD8407047C04600100240980D000885
:1008700010B50E4BDB68DB0305D40C4B1B68DB06A5
:1008800012D50B4800E00B480849CA68920C0F23A8
:100890001340094AD35C5843CB689B0D0321194090
:1008A0000131FFF731FC10BD0448EDE700100240B4
:1008B00000093D0000127A00A00D00080024F40099
:1008C00010B5174BDA680C231340082B23D009D836
:1008D000002B0CD0042B14D1114B1B68DB061CD54C
:1008E00010480DE00C2B0CD1FFF7C2FF08E00C4BB9
:1008F0005A68520B072313400133802000029840AE
:1009000010BD074B5A68520B072313400133802058
:1009100000029840F4E70448F2E70448F0E7C046D4
:100920000010024000093D0000127A000024F4008B
:1009300010B50400FFF7C4FF2060FFF76FFF606091
:10094000FFF77AFFA0606068FFF784FFE06010BDEA
:1009500010B50400032803D000200C2C32D010BDA9
:100960002E4BDB6C0340020413432D4A93420FD0FD
:100970002C4A934219D02C4A934206D0FFF7A0FF8D
:10098000FFF74CFFFFF766FFE7E7FFF799FFE4E7A4
:10099000224B1B680422100018401A42DDD01F4B66
:1009A0001B68DB060CD42148D7E71C4B1A6D80234B
:1009B0009B00100018401A42CFD080200002CCE7E4
:1009C0001B48CAE7154BDB6C234024041C43194B1E
:1009D0009C420FD0184B9C4216D0184B9C4206D01C
:1009E000FFF76EFFFFF71AFFFFF726FFB7E7FFF7E6
:1009F00067FFB4E7094B1B685B07B0D5074B1B6863
:100A0000DB0608D40948AAE7044B1B6D9B05A6D555
:100A100080200002A3E70648A1E7C046001002407C
:100A20000200030003000300010003000024F4009F
:100A300000093D0008000C000C000C0004000C0034
:100A400030B585B004000D000368DB0759D4036896
:100A50002E4A1A404B68C9680B4329690B43A969A0
:100A60000B43134303604368294A1340AA681343A6
:100A700043608368274A13406A6913438360264BA7
:100A800098420AD0254B984211D0254B984212D05B
:100A9000244B984214D0012034E00320FFF758FF84
:100AA000002831D0296800290FD101202AE00C202C
:100AB000FFF74EFFF4E76846FFF73AFF0298EFE7CB
:100AC0006846FFF735FF0298EAE7AA6980231B0210
:100AD0009A4208D04B08C018FFF716FB03041B0C02
:100AE000E36000200EE040004B08C018FFF70CFB4D
:100AF0000D4B03400004400C072210401843E060F7
:100B0000EFE7012005B030BD0120FBE7F369FFEFFF
:100B1000FFCFFFFFFFFCFFFF003801400044004013
:100B2000004C004000500040F0FF000010B5FA21DA
:100B30008900FFF7E9FA0138034B586000229A60F8
:100B400005321A6010BDC04610E000E082B0084BCC
:100B50001B680193019B431C00D00130002805D085
:100B6000034B1B68DB03F9D50138F7E702B0704788
:100B700010E000E0014B18607047C0460000002004
:100B800070B50C4D0C4E761BB61005D0002408CD68
:100B900001349847A642FAD100F0EAF8074D084E12
:100BA000761BB61005D0002408CD01349847A64224
:100BB000FAD170BDB00D0008B00D0008B00D0008EE
:100BC000B80D0008F0B50500830749D0541E002A6F
:100BD00045D003000326CAB202E00135013C3ED3F2
:100BE00001332A703342F8D1032C30D9FF220A4056
:100BF000150215432A0415430F2C34D92700103F42
:100C00003F093E01B4461E001A00103666441560C6
:100C100055609560D5601032B242F8D101373F017E
:100C2000DB190F270C22274022403C00002A0ED05F
:100C30003E1FB608B400A4461A001C1D644420C21E
:100C4000A242FCD103240136B6009B193C40002C83
:100C500005D0C9B21C19197001339C42FBD1F0BDFB
:100C600003001400C0E72700E2E7C046034B10B5BD
:100C7000002B02D0024800F005F810BD0000000073
:100C8000950C000810B5010000230022002000F0A0
:100C900019F810BD70B5074D074C641BA41005D0A2
:100CA000013CA300EB589847002CF9D100F066F8FE
:100CB00070BDC046B80D0008BC0D00087047C046A6
:100CC0007047C046F0B5D6464F464646C0B5264F9B
:100CD00082B006003868924698468946FFF7EEFFD4
:100CE000224B1B680193A423019A5B00D558002D69
:100CF0002ED06C681F2C30DC002E0FD1631C6B6073
:100D00004B460234A40038686351FFF7D9FF002036
:100D100002B0E0BCBA46B146A846F0BD88225146B2
:100D20002800A300EB189950873AA2408930FF3081
:100D30000168114301608421404649005850022E49
:100D4000DCD12B008D33FF3319680A431A60D5E7D5
:100D500015004D35FF35D550CBE73868FFF7B0FFAC
:100D600001204042D4E7C04630040020AC0D00080A
:100D7000F8B5C046F8BC08BC9E467047F8B5C046FA
:080D8000F8BC08BC9E46704758
:100D88000000000000000000010203040607080933
:100D98000000000001020304030406080C101820D8
:080DA8003000000008000020EB
:080DB0006D0C0008E9000008C9
:040DB800C10000086E
:100DBC00000020000000000000000000F4020020F1
:100DCC005C030020C40300200000000000000000B1
:100DDC000000000000000000000000000000000007
:100DEC0000000000000000000000000000000000F7
:100DFC0000000000000000000000000000000000E7
:100E0C0000000000000000000000000000000000D6
:100E1C0000000000000000000000000000000000C6
:100E2C0000000000000000000000000000000000B6
:100E3C0000000000000000000000000000000000A6
:100E4C000000000000000000000000000000000096
:100E5C000000000000000000000000000000000086
:100E6C0001000000000000000E33CDAB34126DE623
:100E7C00ECDE05000B00000000000000000000008C
:100E8C000000000000000000000000000000000056
:100E9C000000000000000000000000000000000046
:100EAC000000000000000000000000000000000036
:100EBC000000000000000000000000000000000026
:0411EC00500400208B
:04000005080005D911
:00000001FF
